:020000040000FA
:020000000B28CB
:10000800CE00030E83129B000A089C00172A0C28B6
:100018008312A901AA01AB018301332A413083125B
:10002800A400EE30A300A30B1728A40B1728000088
:100038008312A501A60103304B2211308312A400BC
:100048003A30A300A30B2628A40B26280000013071
:100058008312A5070318A60A0030A6072608803AC7
:10006800CF0080304F02031D3B2803302502031CBC
:100078003E283F281F2802304B2202304B220830EE
:100088004B2200304B220C304B2200304B220130E7
:100098004B2200304B2206304B2241308312A40001
:1000A800EE30A300A30B5628A40B56280000080026
:1000B8008312910192010C080D0403196428652824
:1000C8009C289301930A7328013003108C0D8D0D21
:1000D800FF3E031D692801309000100893078D1F0B
:1000E80076287728682801300310910D920DFF3E7D
:1000F800031D78280D080F02031D84280C080E0222
:10010800031C872888288F280C088E020D08031CDA
:100118008F038F021114013003108D0C8C0CFF3EDD
:10012800031D902801309302031D9B289C287728E3
:1001380012088D0011088C00080083129F001F0808
:1001480001399D009D0E06081D06EF391D06860023
:100158001F089D0003101D0C01399E009E0E9E0D68
:1001680006081E06DF391E0686001F089D0002309D
:1001780003109D0CFF3E031DBC281D0801399E007D
:100188009E0E9E0D9E0D06081E06BF391E06860091
:100198001F089D00033003109D0CFF3E031DCF2850
:1001A8001D0801399E009E0C9E0C06081E067F390C
:1001B8001E068600080083128E000E0801398C0086
:1001C8008C0E06080C06EF390C0686000E088C000B
:1001D80003100C0C01398D008D0E8D0D06080D06CF
:1001E800DF390D0686000E088C00023003108C0CD7
:1001F800FF3E031DFA280C0801398D008D0E8D0D68
:100208008D0D06080D06BF390D0686000E088C00F8
:10021800033003108C0CFF3E031D0D290C08013917
:100228008D008D0C8D0C06080D067F390D06860095
:100238000800831292010130B821643083128C00C7
:1002480000308D002A088F0029088E005C20831258
:100258000C08303EF9210A308312940000309500D2
:100268000A308C0000308D002A088F0029088E0083
:100278005C2083120D0897000C0896005A218312FF
:100288001408303EF9212E30F9210A3083129400E7
:10029800003095002A089700290896005A218312F1
:1002A8001408303EF9217330F9210800831214082C
:1002B800150403196029612990299901990A6F2960
:1002C80001300310940D950DFF3E031D6529013083
:1002D800980018089907951F722973296429150829
:1002E8001702031D792914081602031C7C297D298D
:1002F8008329140896021508031C970397020130F6
:100308000310950C940CFF3E031D842901309902BB
:10031800031D8F2990297329170895001608940042
:1003280008008312A5002508031D9B299C299F29E5
:10033800A601A701A3294030A6000030A70026087F
:1003480023048038A4002408A8002808A400043046
:100358000310A40CFF3E031DAC2924084B22831272
:1003680028080F394B220800831294001408031D33
:10037800BE29BF29C22995019601C629403095009A
:10038800003096001508120480389300130897006F
:100398001708930004300310930CFF3E031DCF2968
:1003A80013085D22831217080F395D220800831293
:1003B800A5002508F039A2002208A6002608A200F8
:1003C80004300310A20CFF3E031DE5292208A300F8
:1003D8002308A60025080F39A2002208A400260831
:1003E8007C22831224087C220800831294001408BB
:1003F800F039910011089500150891000430031098
:10040800910CFF3E031D032A110892001208950063
:1004180014080F39910011089300150889228312D6
:100428001308892208000B1D1A2A1B2A2B2AFB30C5
:100438009A001A088B052B080319232A242A2B2A29
:100448000130A9070318AA0A0030AA071D21831240
:100458001C088A001B0E8300CE0E4E0E0900831660
:100468008501860183128501860112208312A3016A
:10047800013095213030DB213030DB212E30DB217B
:100488003030DB217330DB216F22492A0B2883129D
:10049800A2002208A12083120610861486101130AB
:1004A800A1003A30A000A00B572AA10B572A000040
:1004B8000800831291001108DF20831206108614A9
:1004C8008610113090003A308F008F0B692A900BFC
:1004D800692A000008008312810107308316810011
:1004E800A0308B00013083129D001D08AB0008006E
:1004F8008312A1002108A1208312061486148610F5
:100508005330A000A00B862A080083129000100820
:10051800DF20831206148614861053308F008F0B49
:04052800932A08000A
:02400E00FAFFB7
:00000001FF
