:020000040000FA
:020000000B28CB
:10000800CE00030E83129C000A089D0099290C2833
:100018008312AB01AC01AD01AE018301C2294130AD
:100028008312A500EE30A400A40B1828A50B1828ED
:1000380000008312A601A70103306A22113083123F
:10004800A5003A30A400A40B2728A50B27280000F8
:1000580001308312A6070318A70A0030A70727084C
:10006800803ACF0080304F02031D3C28033026021F
:10007800031C3F284028202802306A2202306A22C6
:1000880008306A2200306A220C306A2200306A2264
:1000980001306A2200306A2206306A224130831217
:1000A800A500EE30A400A40B5728A50B5728000084
:1000B80008008312910192010C080D0403196528A8
:1000C80066289D289301930A7428013003108C0D2B
:1000D8008D0DFF3E031D6A2801309000100893071C
:1000E8008D1F77287828692801300310910D920D0B
:1000F800FF3E031D79280D080F02031D85280C08F3
:100108000E02031C8828892890280C088E020D08E6
:10011800031C8F038F021114013003108D0C8C0CFB
:10012800FF3E031D912801309302031D9C289D2842
:10013800782812088D0011088C00080007308312F7
:100148009A001A08920001300B22643083128C0046
:1001580000308D002C088F002B088E005D20831244
:100168000C08303E4C220A3083129400003095006F
:100178000A308C0000308D002C088F002B088E0070
:100188005D2083120D0897000C0896005E218312EB
:100198001408303E4C222E304C220A308312940030
:1001A800003095002C0897002B0896005E218312DA
:1001B8001408303E4C2273304C2208008312A000F1
:1001C800200801399E009E0E06081E06EF391E06FD
:1001D800860020089E0003101E0C01399F009F0E08
:1001E8009F0D06081F06DF391F06860020089E009F
:1001F800023003109E0CFF3E031DFD281E08013926
:100208009F009F0E9F0D9F0D06081F06BF391F06F2
:10021800860020089E00033003109E0CFF3E031D3D
:1002280010291E0801399F009F0C9F0C06081F0605
:100238007F391F068600080083128E000E080139D8
:100248008C008C0E06080C06EF390C0686000E088A
:100258008C0003100C0C01398D008D0E8D0D0608D5
:100268000D06DF390D0686000E088C0002300310DB
:100278008C0CFF3E031D3B290C0801398D008D0EA7
:100288008D0D8D0D06080D06BF390D0686000E086A
:100298008C00033003108C0CFF3E031D4E290C0804
:1002A80001398D008D0C8D0C06080D067F390D0661
:1002B80086000800831214081504031964296529A7
:1002C80094299901990A732901300310940D950D09
:1002D800FF3E031D69290130980018089907951FEA
:1002E80076297729682915081702031D7D2914081E
:1002F8001602031C802981298729140896021508EB
:10030800031C9703970201300310950C940CFF3ED1
:10031800031D882901309902031D932994297729FF
:10032800170895001608940008000B1D9C299D29A4
:10033800BA29FB309B001B088B050C3081002E0866
:100348000319A729A829BA2901309B001B08AD0762
:1003580004302D02031CB129B229BA29AD0101309C
:10036800AB070318AC0A0030AC07A22083121D08A3
:100378008A001C0E8300CE0E4E0E090083168501DE
:100388008601831285018601132007308312AA0093
:100398002A08A4000130E82130302E2230302E22E5
:1003A8002E302E2230302E2273302E228E228312AF
:1003B800861DDF29E029E129B6228312061DE529D9
:1003C800E629DB29DA290B288312A6002608031D53
:1003D800EE29EF29F229A701A801F6294030A70044
:1003E8000030A800270824048038A5002508A900A3
:1003F8002908A50004300310A50CFF3E031DFF29A2
:1004080025086A22831229080F396A2208008312F4
:1004180094001408031D112A122A152A9501960121
:10042800192A4030950000309600150812048038CB
:100438009300130897001708930004300310930CD7
:10044800FF3E031D222A13087C22831217080F3946
:100458007C2208008312A6002608F039A30023088E
:10046800A7002708A30004300310A30CFF3E031DB8
:10047800382A2308A4002408A70026080F39A30057
:100488002308A50027089C22831225089C2208001F
:10049800831294001408F03991001108950015088A
:1004A800910004300310910CFF3E031D562A1108D9
:1004B80092001208950014080F3991001108930052
:1004C8001508A92283121308A92208008312A30081
:1004D8002308E22083120610861486101130A20029
:1004E8003A30A100A10B762AA20B762A0000080058
:1004F8008312910011082021831206108614861099
:10050800113090003A308F008F0B882A900B882A80
:10051800000008000C308312810007308316810028
:10052800A0308B00013083129E001E08AE00080028
:100538008312A2002208E220831206148614861071
:100548005330A100A10BA62A0800831290001008BE
:100558002021831206148614861053308F008F0BC7
:10056800B32A0800DF3083129E001E088B05AE01F7
:02057800080079
:02400E00FAFFB7
:00000001FF
