:020000040000FA
:10000000FE2B00308A000408840A8207003454342E
:1000100069346D346534723420345334743461344B
:100020007234743421340034543469346D3465349A
:100030003A3420343034203473346534633400343B
:1005D2008312940014083A23831206148614861098
:1005E20053309300930BF32A0800831295001508E9
:1005F2003A238312061086148610113094003A3082
:100602009300930B022B940B022B0000080083161D
:1006120085018601831285018601672383129A016F
:100622009B010130B12383129A019A0A9B010E3079
:10063200B1231A2B0028831298001808F03995006C
:10064200150899001908950004300310950CFF3E17
:10065200031D262B150896001608990018080F3955
:100662009500150897001908E92283121708E92254
:100672000800831291009201110801398C001208BE
:100682000D3E84000C08831380000310910C01308E
:100692008C000C08920704301202031C512B522BBF
:1006A2003D2B0D0C031C0612031806160E0C031C20
:1006B2008612031886160F0C031C0613031806175E
:1006C200100C031C8613031886170800413083128E
:1006D2009700EE309600960B6C2B970B6C2B00005C
:1006E2008312980199010330F62211308312970088
:1006F2003A309600960B7B2B970B7B2B0000013038
:10070200831298070318990A003099071908803A4A
:10071200CF0080304F02031D902B03301802031CC0
:10072200932B942B742B0230F6220230F6220830DF
:10073200F6220030F6220C30F6220030F62201308A
:10074200F6220030F6220630F6224130831297005C
:10075200EE309600960BAB2B970BAB2B00000800EC
:100762008312A30080309C001C08A1001A08031DFC
:10077200BB2BBC2BC42B1B089C009D011C089E009C
:100782001D089F00CB2B1B08403E9E000030031823
:1007920001309F001E089C001C08A1042108F039AA
:1007A2009C001C08A20022089C00043003109C0C30
:1007B200FF3E031DD72B1C089D001D08A200210827
:1007C2000F399C001C08A0002208F6228312200880
:1007D200F622F42B2308840001201C23013083120B
:1007E2009C001C08A3078312230884000120003AFE
:0E07F200031DFC2BFD2BEB2B08008301082BB5
:02400E00FAFFB7
:00000001FF
